{
  "_format": "hh-sol-artifact-1",
  "contractName": "Transactions",
  "sourceName": "contracts/Transaction.sol",
  "abi": [
    {
      "anonymous": false,
      "inputs": [
        {
          "indexed": false,
          "internalType": "address",
          "name": "from",
          "type": "address"
        },
        {
          "indexed": false,
          "internalType": "address",
          "name": "receiver",
          "type": "address"
        },
        {
          "indexed": false,
          "internalType": "uint256",
          "name": "amount",
          "type": "uint256"
        },
        {
          "indexed": false,
          "internalType": "string",
          "name": "message",
          "type": "string"
        },
        {
          "indexed": false,
          "internalType": "uint256",
          "name": "timestamp",
          "type": "uint256"
        },
        {
          "indexed": false,
          "internalType": "string",
          "name": "keyword",
          "type": "string"
        }
      ],
      "name": "Transfer",
      "type": "event"
    },
    {
      "inputs": [
        {
          "internalType": "address payable",
          "name": "receiver",
          "type": "address"
        },
        {
          "internalType": "uint256",
          "name": "amount",
          "type": "uint256"
        },
        {
          "internalType": "string",
          "name": "message",
          "type": "string"
        },
        {
          "internalType": "string",
          "name": "keyword",
          "type": "string"
        }
      ],
      "name": "addToBlockchain",
      "outputs": [],
      "stateMutability": "payable",
      "type": "function"
    },
    {
      "inputs": [],
      "name": "getAllTransactions",
      "outputs": [
        {
          "components": [
            {
              "internalType": "address",
              "name": "sender",
              "type": "address"
            },
            {
              "internalType": "address",
              "name": "receiver",
              "type": "address"
            },
            {
              "internalType": "uint256",
              "name": "amount",
              "type": "uint256"
            },
            {
              "internalType": "string",
              "name": "message",
              "type": "string"
            },
            {
              "internalType": "uint256",
              "name": "timestamp",
              "type": "uint256"
            },
            {
              "internalType": "string",
              "name": "keyword",
              "type": "string"
            }
          ],
          "internalType": "struct Transactions.TransferStruct[]",
          "name": "",
          "type": "tuple[]"
        }
      ],
      "stateMutability": "view",
      "type": "function"
    },
    {
      "inputs": [],
      "name": "getTransactionCount",
      "outputs": [
        {
          "internalType": "uint256",
          "name": "",
          "type": "uint256"
        }
      ],
      "stateMutability": "view",
      "type": "function"
    }
  ],
  "bytecode": "0x608060405234801561001057600080fd5b50610e03806100206000396000f3fe6080604052600436106100345760003560e01c806327506f53146100395780632e7700f014610064578063cc2d7ead1461008f575b600080fd5b34801561004557600080fd5b5061004e6100ab565b60405161005b9190610a64565b60405180910390f35b34801561007057600080fd5b506100796102ee565b6040516100869190610ac6565b60405180910390f35b6100a960048036038101906100a491906106dd565b6102f7565b005b60606001805480602002602001604051908101604052809291908181526020016000905b828210156102e557838290600052602060002090600602016040518060c00160405290816000820160009054906101000a900473ffffffffffffffffffffffffffffffffffffffff1673ffffffffffffffffffffffffffffffffffffffff1673ffffffffffffffffffffffffffffffffffffffff1681526020016001820160009054906101000a900473ffffffffffffffffffffffffffffffffffffffff1673ffffffffffffffffffffffffffffffffffffffff1673ffffffffffffffffffffffffffffffffffffffff168152602001600282015481526020016003820180546101b890610ccf565b80601f01602080910402602001604051908101604052809291908181526020018280546101e490610ccf565b80156102315780601f1061020657610100808354040283529160200191610231565b820191906000526020600020905b81548152906001019060200180831161021457829003601f168201915b505050505081526020016004820154815260200160058201805461025490610ccf565b80601f016020809104026020016040519081016040528092919081815260200182805461028090610ccf565b80156102cd5780601f106102a2576101008083540402835291602001916102cd565b820191906000526020600020905b8154815290600101906020018083116102b057829003601f168201915b505050505081525050815260200190600101906100cf565b50505050905090565b60008054905090565b823414610339576040517f08c379a000000000000000000000000000000000000000000000000000000000815260040161033090610a86565b60405180910390fd5b600160008082825461034b9190610bb3565b9250508190555060016040518060c001604052803373ffffffffffffffffffffffffffffffffffffffff1681526020018673ffffffffffffffffffffffffffffffffffffffff16815260200185815260200184815260200142815260200183815250908060018154018082558091505060019003906000526020600020906006020160009091909190915060008201518160000160006101000a81548173ffffffffffffffffffffffffffffffffffffffff021916908373ffffffffffffffffffffffffffffffffffffffff16021790555060208201518160010160006101000a81548173ffffffffffffffffffffffffffffffffffffffff021916908373ffffffffffffffffffffffffffffffffffffffff16021790555060408201518160020155606082015181600301908051906020019061048a9291906105a8565b506080820151816004015560a08201518160050190805190602001906104b19291906105a8565b50505060008473ffffffffffffffffffffffffffffffffffffffff16846040516104da906109e0565b60006040518083038185875af1925050503d8060008114610517576040519150601f19603f3d011682016040523d82523d6000602084013e61051c565b606091505b5050905080610560576040517f08c379a000000000000000000000000000000000000000000000000000000000815260040161055790610aa6565b60405180910390fd5b7f416cfa4330a4565f45c2fd2dd4826a83a37443aba2ce6f79477c7355afac35fa338686864287604051610599969594939291906109f5565b60405180910390a15050505050565b8280546105b490610ccf565b90600052602060002090601f0160209004810192826105d6576000855561061d565b82601f106105ef57805160ff191683800117855561061d565b8280016001018555821561061d579182015b8281111561061c578251825591602001919060010190610601565b5b50905061062a919061062e565b5090565b5b8082111561064757600081600090555060010161062f565b5090565b600061065e61065984610b12565b610ae1565b90508281526020810184848401111561067657600080fd5b610681848285610c8d565b509392505050565b60008135905061069881610d9f565b92915050565b600082601f8301126106af57600080fd5b81356106bf84826020860161064b565b91505092915050565b6000813590506106d781610db6565b92915050565b600080600080608085870312156106f357600080fd5b600061070187828801610689565b9450506020610712878288016106c8565b935050604085013567ffffffffffffffff81111561072f57600080fd5b61073b8782880161069e565b925050606085013567ffffffffffffffff81111561075857600080fd5b6107648782880161069e565b91505092959194509250565b600061077c8383610932565b905092915050565b61078d81610c57565b82525050565b61079c81610c09565b82525050565b6107ab81610c09565b82525050565b60006107bc82610b52565b6107c68185610b75565b9350836020820285016107d885610b42565b8060005b8581101561081457848403895281516107f58582610770565b945061080083610b68565b925060208a019950506001810190506107dc565b50829750879550505050505092915050565b600061083182610b5d565b61083b8185610b91565b935061084b818560208601610c9c565b61085481610d8e565b840191505092915050565b600061086a82610b5d565b6108748185610ba2565b9350610884818560208601610c9c565b61088d81610d8e565b840191505092915050565b60006108a5601a83610ba2565b91507f53656e7420455448206d757374206d6174636820616d6f756e740000000000006000830152602082019050919050565b60006108e5601283610ba2565b91507f4661696c656420746f2073656e642045544800000000000000000000000000006000830152602082019050919050565b6000610925600083610b86565b9150600082019050919050565b600060c08301600083015161094a6000860182610793565b50602083015161095d6020860182610793565b50604083015161097060408601826109c2565b50606083015184820360608601526109888282610826565b915050608083015161099d60808601826109c2565b5060a083015184820360a08601526109b58282610826565b9150508091505092915050565b6109cb81610c4d565b82525050565b6109da81610c4d565b82525050565b60006109eb82610918565b9150819050919050565b600060c082019050610a0a60008301896107a2565b610a176020830188610784565b610a2460408301876109d1565b8181036060830152610a36818661085f565b9050610a4560808301856109d1565b81810360a0830152610a57818461085f565b9050979650505050505050565b60006020820190508181036000830152610a7e81846107b1565b905092915050565b60006020820190508181036000830152610a9f81610898565b9050919050565b60006020820190508181036000830152610abf816108d8565b9050919050565b6000602082019050610adb60008301846109d1565b92915050565b6000604051905081810181811067ffffffffffffffff82111715610b0857610b07610d5f565b5b8060405250919050565b600067ffffffffffffffff821115610b2d57610b2c610d5f565b5b601f19601f8301169050602081019050919050565b6000819050602082019050919050565b600081519050919050565b600081519050919050565b6000602082019050919050565b600082825260208201905092915050565b600081905092915050565b600082825260208201905092915050565b600082825260208201905092915050565b6000610bbe82610c4d565b9150610bc983610c4d565b9250827fffffffffffffffffffffffffffffffffffffffffffffffffffffffffffffffff03821115610bfe57610bfd610d01565b5b828201905092915050565b6000610c1482610c2d565b9050919050565b6000610c2682610c2d565b9050919050565b600073ffffffffffffffffffffffffffffffffffffffff82169050919050565b6000819050919050565b6000610c6282610c69565b9050919050565b6000610c7482610c7b565b9050919050565b6000610c8682610c2d565b9050919050565b82818337600083830152505050565b60005b83811015610cba578082015181840152602081019050610c9f565b83811115610cc9576000848401525b50505050565b60006002820490506001821680610ce757607f821691505b60208210811415610cfb57610cfa610d30565b5b50919050565b7f4e487b7100000000000000000000000000000000000000000000000000000000600052601160045260246000fd5b7f4e487b7100000000000000000000000000000000000000000000000000000000600052602260045260246000fd5b7f4e487b7100000000000000000000000000000000000000000000000000000000600052604160045260246000fd5b6000601f19601f8301169050919050565b610da881610c1b565b8114610db357600080fd5b50565b610dbf81610c4d565b8114610dca57600080fd5b5056fea26469706673582212202ea533367353d9953c515ebb58e14aa16956fd0a22539152e82c38c9f6a5bf1c64736f6c63430008000033",
  "linkReferences": {},
  "deployedLinkReferences": {}
}